:100000000C9462000C948A000C948A000C948A0070
:100010000C948A000C948A000C948A000C948A0038
:100020000C948A000C948A000C948A000C948A0028
:100030000C948A000C948A000C948A000C948A0018
:100040000C94BD010C948A000C948A000C948A00D4
:100050000C948A000C948A000C948A000C948A00F8
:100060000C948A000C948A000000000023002600F3
:10007000290000000000240027002A0000000000E2
:10008000250028002B0004040404040404040202D4
:100090000202020203030303030301020408102007
:1000A0004080010204081020010204081020000012
:1000B0000008000201000003040700000000000027
:1000C0000000AB0211241FBECFEFD8E0DEBFCDBFD2
:1000D00011E0A0E0B1E0EAE2F6E002C005900D9286
:1000E000A030B107D9F721E0A0E0B1E001C01D9236
:1000F000AF30B207E1F710E0C2E6D0E004C02197CC
:10010000FE010E940D03C136D107C9F70E94070204
:100110000C9413030C940000833081F028F4813098
:1001200099F08230A9F008958730A9F08830C9F09D
:100130008430B1F4809180008F7D03C08091800075
:100140008F7780938000089584B58F7784BD08955C
:1001500084B58F7DFBCF8091B0008F778093B00006
:1001600008958091B0008F7DF9CF1F93CF93DF93D7
:10017000282F30E0F901E255FF4F8491F901E6564E
:10018000FF4FD491F901EA57FF4FC491CC23A9F056
:10019000162F81110E948C00EC2FF0E0EE0FFF1F54
:1001A000E458FF4FA591B4918FB7F894EC911111D9
:1001B00008C0D095DE23DC938FBFDF91CF911F91D4
:1001C0000895DE2BF8CFCF93DF9390E0FC01E65645
:1001D000FF4F24918A579F4FFC0184918823D1F0CF
:1001E00090E0880F991FFC01EE58FF4FA591B49144
:1001F000FC01E458FF4FC591D49161110EC09FB727
:10020000F8948C91E22FE0958E238C932881E22341
:10021000E8839FBFDF91CF9108958FB7F894EC9159
:10022000E22BEC938FBFF6CF3FB7F8948091090192
:1002300090910A01A0910B01B0910C0126B5A89BE9
:1002400005C02F3F19F00196A11DB11D3FBFBA2F68
:10025000A92F982F8827BC01CD01620F711D811D28
:10026000911D42E0660F771F881F991F4A95D1F7AD
:1002700008958F929F92AF92BF92CF92DF92EF92AA
:10028000FF924B015C010E9414016B017C010E94F2
:1002900014016C197D098E099F09683E7340810520
:1002A0009105A8F321E0821A9108A108B10888EE0F
:1002B000C80E83E0D81EE11CF11C81149104A10436
:1002C000B10429F7FF90EF90DF90CF90BF90AF90EF
:1002D0009F908F900895CF93DF93EC0161E0809120
:1002E0000D010E94B50020E437E0DE010E94060304
:1002F00024EB30E040E050E00E94B602205E3D4F2B
:100300004F4F5F4F2230310548F0220F331F220F2D
:10031000331F25503109C9010197F1F760E0809141
:100320000D010E94B50064E170E080E090E0DF9193
:10033000CF910C943901CF93882371F01092000172
:10034000C0910001CA35B8F48C2F90E00E946B0177
:10035000CF5FC0930001F4CF8AE580930001C09184
:100360000001CC2341F08C2F90E00E946B01C15022
:10037000C0930001F4CFCF9108951F920F920FB652
:100380000F9211242F933F938F939F93AF93BF931B
:100390008091050190910601A0910701B09108019B
:1003A0003091040123E0230F2D3758F50196A11D4C
:1003B000B11D209304018093050190930601A09341
:1003C0000701B09308018091090190910A01A09161
:1003D0000B01B0910C010196A11DB11D8093090183
:1003E00090930A01A0930B01B0930C01BF91AF91C0
:1003F0009F918F913F912F910F900FBE0F901F9063
:10040000189526E8230F0296A11DB11DD2CF78942E
:1004100084B5826084BD84B5816084BD85B5826009
:1004200085BD85B5816085BD80916E0081608093BA
:100430006E00109281008091810082608093810023
:100440008091810081608093810080918000816033
:10045000809380008091B10084608093B10080918E
:10046000B00081608093B00080917A0084608093B6
:100470007A0080917A00826080937A0080917A007D
:10048000816080937A0080917A00806880937A00FE
:100490001092C10061E083E00E94E30060E082E02E
:1004A0000E94E300C0EBD0E00CE910E098E8E92EF0
:1004B00090E0F92EAA24A39420E0C22E20E0D22EB0
:1004C000FE018491F801B490F7019490992009F409
:1004D0003FC081110E948C00E92DF0E0EE0FFF1F5C
:1004E000E859FF4FA591B4918C91B82231E020E0FA
:1004F00009F430E0832F922FF82FF170BF2EF09384
:10050000030120910201F217D1F0892BC1F09090E4
:100510000101892C8A24682D83E00E94B500882D72
:100520000E949B0168E873E180E090E00E9439013D
:10053000692D83E00E94B500892D0E949B01B09235
:100540000201C114D10409F4BBCF0E940000B8CF4E
:1005500090E080E0D1CF61E084E00E94E30084E09D
:1005600090E090930E0180930D010895052E97FB66
:100570001EF400940E94CD0257FD07D00E94D502C0
:1005800007FC03D04EF40C94CD0250954095309565
:1005900021953F4F4F4F5F4F0895909580957095EF
:1005A00061957F4F8F4F9F4F0895A1E21A2EAA1B8E
:1005B000BB1BFD010DC0AA1FBB1FEE1FFF1FA21713
:1005C000B307E407F50720F0A21BB30BE40BF50B10
:1005D000661F771F881F991F1A9469F76095709599
:1005E000809590959B01AC01BD01CF010895A29F1C
:1005F000B001B39FC001A39F700D811D1124911DF7
:10060000B29F700D811D1124911D08950E94F70263
:10061000B7FF0895821B930B0895EE0FFF1F0590FF
:0A062000F491E02D0994F894FFCF47
:00000001FF
